S0210000426C7565746F6F74685F55534152545F496E746572727570742E7372656333
S11300000C942A000C9434000C9434000C943400A6
S11300100C9434000C9434000C9434000C9434008C
S11300200C9434000C9434000C9434000C9434007C
S11300300C9434000C9470000C9434000C94340030
S11300400C9434000C9434000C9434000C9434005C
S11300500C94340011241FBECFE5D8E0DEBFCDBF21
S11300600E9464000C94C7000C9400002AB1286913
S11300702AB920B5266820BDDC01CB01880F991F61
S1130080AA1FBB1F880F991FAA1FBB1F9C01AD018C
S1130090220F331F441F551F220F331F441F551FA8
S11300A060E072E18AE790E00E94A5008FEF820F82
S11300B089B9DA01C9010197A109B109892F9A2FD8
S11300C0AB2FBB2780BD08958FEF8ABBD99A60E818
S11300D075E280E090E00E9436007894D99AFECFD1
S11300E01F920F920FB60F9211242F933F938F9369
S11300F09F938FB7F8949CB19BBB2FEF34E39CE0A4
S1130100215030409040E1F700C000009FEF9BBBBE
S11301102FEF34E39CE0215030409040E1F700C0E1
S113012000001BBA2FEF34E39CE021503040904094
S1130130E1F700C000008FBF9F918F913F912F91F5
S11301400F900FBE0F901F901895A1E21A2EAA1BB4
S1130150BB1BFD010DC0AA1FBB1FEE1FFF1FA21773
S1130160B307E407F50720F0A21BB30BE40BF50B70
S1130170661F771F881F991F1A9469F760957095F9
S1130180809590959B01AC01BD01CF010895F89431
S1050190FFCF9B
S9030000FC
