S01400004C43445F41546D65676133322E737265634A
S11300000C942A000C943F000C943F000C943F0085
S11300100C943F000C943F000C943F000C943F0060
S11300200C943F000C943F000C943F000C943F0050
S11300300C943F000C943F000C943F000C943F0040
S11300400C943F000C943F000C943F000C943F0030
S11300500C943F0011241FBECFE5D8E0DEBFCDBF16
S113006010E0A0E6B0E0E8E3F2E002C005900D92F3
S1130070A436B107D9F70E949B000C941A010C9482
S11300800000959A0000000082B3807C82BB089532
S113009017BA979A82B3887F82BBC79B04C00E9419
S11300A04100C799FCCF8FEF87BB0895CF93C82F2A
S11300B00E944800C8BB82B38B7782BB0E94410078
S11300C018BACF910895CF93C82F0E944800C8BB97
S11300D09798929A0E94410018BACF910895CF93AD
S11300E0DF93EC018881882331F021960E9463001C
S11300F089918111FBCFDF91CF910895CF93DF9345
S1130100CDB7DEB72A970FB6F894DEBF0FBECDBFCA
S11301104AE0BE016F5F7F4F0E94E500CE01019669
S11301200E946F002A960FB6F894DEBF0FBECDBFB3
S1130130DF91CF91089581B3846A81BB8FE697E103
S11301400197F1F700C0000081E00E9456008FE1A2
S11301509EE40197F1F700C0000088E30E94560076
S11301608FE19EE40197F1F700C000008FE00E9448
S113017056008FE19EE40197F1F700C00000C0EC47
S113018000E410E08C2F0E94560080E690E00E946C
S11301906F008AE80E945600C8010E947E009FEF0B
S11301A021EE84E0915020408040E1F700C000003F
S11301B08C2F0E94560082E690E00E946F000F5F31
S11301C01F4FCF5FC03DF1F6DACFBB274A3031F481
S11301D0992322F4BDE2909581959F4F0C94F100F0
S11301E0BB27FB015527AA27880F991FAA1FA4170D
S11301F010F0A41B83955051B9F7A05DAA3308F001
S1130200A95DA193009779F7B111B1931192CB0134
S11302100C940A01DC01FC01672F71917723E1F74B
S1130220329704C07C916D9370836291AE17BF07BF
S10B0230C8F30895F894FFCF10
S10702386900200035
S9030000FC
