:100000000C942A000C943C000C943C000C943C0092
:100010000C943C000C943C000C943C000C943C0070
:100020000C943C000C943C000C943C000C943C0060
:100030000C943C000C94A7000C943C000C943C00E5
:100040000C943C000C943C000C943C000C943C0040
:100050000C943C0011241FBECFE5D8E0DEBFCDBF1D
:1000600020E0A0E6B0E001C01D92A336B207E1F7A0
:100070000E9498000C94E6000C94000086B597B599
:10008000885795409BBD8ABD089586B597B5805326
:1000900091419BBD8ABD0895809162008FBD809182
:1000A00060008EBD8091610090E097BD86BD08958F
:1000B0008FB5826C8FBD8EB589618EBD8FE19EE458
:1000C00097BD86BD08950E9458000E943E0083E2BD
:1000D00094EF0197F1F700C000000E944C000895D2
:1000E0008FB5809362008EB58093600086B597B51A
:1000F0008093610008950E9458000E94450083E2A9
:1001000094EF0197F1F700C000000E944C000895A1
:1001100082E08BB98AB188698AB980B5866880BD6A
:100120008CE089B910BC08955D9BFECF8CB9089511
:100130008FE08ABB8FEF81BB8BBB0E94700060E8B1
:1001400075E280E090E00E9488007894FFCF1F92D3
:100150000F920FB60F9211242F933F934F935F93FB
:100160006F937F938F939F93AF93BF93CF93EF93AF
:10017000FF93CFB7F8948CB190EF9BBB813339F4E8
:10018000D89A0E94630081E30E9494000CC08033DF
:1001900039F4D99A0E947B0080E30E94940003C046
:1001A000DA9A0E949400CFBFFF91EF91CF91BF9157
:1001B000AF919F918F917F916F915F914F913F91FF
:1001C0002F910F900FBE0F901F901895F894FFCFAE
:00000001FF
