:100000000C942A000C9447000C9447000C94470071
:100010000C9447000C9447000C9447000C94470044
:100020000C9447000C9447000C9447000C94470034
:100030000C9447000C9427010C9447000C94470043
:100040000C9447000C9447000C9447000C94470014
:100050000C94470011241FBECFE5D8E0DEBFCDBF12
:1000600010E0A0E6B0E0E2E2F4E002C005900D92FC
:10007000A838B107D9F721E0A8E8B0E001C01D9287
:10008000A538B207E1F70E94E6000C940F020C9429
:100090000000959A0000000082B3807C82BB089526
:1000A00017BA979A82B3887F82BBC79B04C00E940D
:1000B0004900C799FCCF8FEF87BB0895CF93C82F16
:1000C0000E945000C8BB82B38B7782BB0E9449005C
:1000D00018BACF91089581B3846A81BB8FE295E706
:1000E0000197F1F700C0000081E00E945E009FE7E9
:1000F00028E381E0915020408040E1F700C00000FB
:1001000088E30E945E009FE728E381E09150204051
:100110008040E1F700C000008FE00E945E009FE792
:1001200028E381E0915020408040E1F700C00000CA
:100130000895CF93C82F0E945000C8BB9798929AF9
:100140000E94490018BACF910895CF93DF93EC0134
:100150008881882331F021960E949900899181112C
:10016000FBCFDF91CF9108952AB128692AB920B534
:10017000266820BDDC01CB01880F991FAA1FBB1F79
:10018000880F991FAA1FBB1F9C01AD01220F331FAF
:10019000441F551F220F331F441F551F60E072E19B
:1001A0008AE790E00E94ED018FEF820F89B9DA01B2
:1001B000C9010197A109B109892F9A2FAB2FBB273C
:1001C00080BD08955F9BFECF8CB1089510925601BB
:1001D0001092550186E9EBE8F0E0DF011D928A9567
:1001E000E9F784E1E1E2F1E0DF011D928A95E9F7A8
:1001F0000E946B00BFEF2DE389E4B15020408040A6
:10020000E1F700C0000060E875E280E090E00E9445
:10021000B400789481E00E945E0080E80E945E0055
:1002200084E20E9499009FEFA1EEB4E09150A040BB
:10023000B040E1F700C0000081E00E945E0080E86D
:100240000E945E0089E690E00E94A500FBCF1F920D
:100250000F920FB60F9211242F933F934F935F93FA
:100260006F937F938F939F93AF93BF93CF93DF93BE
:10027000EF93FF93DFB7F8940E94E200C82F8091BC
:10028000890080580E945E008C2F0E949900809106
:10029000890090918A0001968F30910539F480E4AD
:1002A00090E090938A008093890012C08F3491056A
:1002B00029F090938A00809389000AC010928A00E6
:1002C0001092890081E00E945E0080E80E945E003A
:1002D000C43219F580E80E945E008FE690E00E942B
:1002E000A5008091890080580E945E0084E20E94EF
:1002F00099008091890090918A00019690938A00DC
:100300008093890010925601109255011092540169
:1003100010925301109288004CC08091880088236D
:1003200029F1CC3299F480915301909154019C01B0
:100330002F5F3F4F3093540120935301209155017B
:1003400030915601FC01E759FE4F20838091550101
:10035000909156019C012F5F3F4F3093560120939F
:100360005501FC01E557FF4FC08323C08091570121
:100370008734C1F4809158018734A1F480915901E8
:10038000813481F480E80E945E008AE790E00E9458
:10039000A50081E080938800E7E5F1E010821182FA
:1003A000128207C0E7E5F1E0818180838281818349
:1003B000C283DFBFFF91EF91DF91CF91BF91AF91EA
:1003C0009F918F917F916F915F914F913F912F916D
:1003D0000F900FBE0F901F901895A1E21A2EAA1B26
:1003E000BB1BFD010DC0AA1FBB1FEE1FFF1FA217E5
:1003F000B307E407F50720F0A21BB30BE40BF50BE2
:10040000661F771F881F991F1A9469F7609570956A
:10041000809590959B01AC01BD01CF010895F894A2
:02042000FFCF0C
:1004220025643A25643A2564004C61743A200047F9
:100432006F7420446F6C6C617200204B49535520DD
:08044200484F495345452000D5
:00000001FF
